:100000000C945A000C946F000C946F000C946F00C9
:100010000C946F000C946F000C946F000C946F00A4
:100020000C946F000C946F000C946F000C9489007A
:100030000C946F000C946F000C946F000C946F0084
:100040000C946F000C946F000C946F000C946F0074
:100050000C946F000C946F000C946F000C946F0064
:100060000C946F000C946F000C946F000C946F0054
:100070000C946F000C946F000C946F000C946F0044
:100080000C946F000C946F000C946F000C946F0034
:100090000C946F000C946F000C946F000C946F0024
:1000A0000C946F000C946F000C946F000C946F0014
:1000B0000C946F0011241FBECFEFD8E0DEBFCDBF80
:1000C00011E0A0E0B1E0E2E9F1E002C005900D929C
:1000D000A230B107D9F70E9471000C94C7000C94AC
:1000E0000000219A8BE198E090938700809386002E
:1000F000109285001092840082E8809380008BE14A
:1001000080938100EFE6F0E08081826080837894C4
:10011000FFCF1F920F920FB60F9211242F938F9340
:100120009F93EF93FF9380910001813099F4809128
:100130008800909189008B31984060F4E8E8F0E005
:100140008081918105969183808380910001811146
:1001500011C002C010920001809188009091890026
:10016000892B41F0E8E8F0E0808191810597918347
:10017000808303C081E080930001FF91EF919F9104
:100180008F912F910F900FBE0F901F901895F8949C
:02019000FFCF9F
:0201920001006A
:00000001FF
