:020000020000FC
:100000000C9434000C9456000C9458000C945A0034
:100010000C945C000C945E000C9460000C946200E4
:100020000C9464000C9466000C9468000C946A00B4
:100030000C949A000C949C000C949E000C94A000CC
:100040000C94A2000C94A4000C94A6000C94A8009C
:100050000C94AA000C94AC000C94AE000C94B0006C
:100060000C94B2000C94B400F8940FEF04B900ECB7
:100070000093800004E00093810000E80093820078
:1000800000E4009380002BE018EB00918400100F37
:1000900000918500201F209389001093880030E094
:1000A00002E000936F0006BB7894FFCF0000189524
:1000B000000018950000189500001895000018958C
:1000C000000018950000189500001895000018957C
:1000D0000000189530FD1BC014E021E031E001C0A4
:1000E0000BC0313011F00C947B0000918900093174
:1000F0008CF00C947B0030E0303011F00C948600D2
:1001000000918900093174F40C94860031E014E008
:1001100021E030E000918900201F20938900109396
:100120008800189500918900200B20938900109376
:100130008800189500001895000018950000189583
:1001400000001895000018950000189500001895FB
:1001500000001895000018950000189500001895EB
:0C0160000000189500001895000018958C
:00000001FF
