S00E000054696E794F532E73726563D0
S11300000C9487000C94A4000C94A4000C94A400F9
S11300100C94A4000C94A4000C94A4000C94A400CC
S11300200C94A4000C94A4000C94A4000C94A400BC
S11300300C94A4000C94A4000C94A4000C94A400AC
S11300400C94A4000C94A4000C94A4000C94A4009C
S11300500C94A4000C94A4000C94A4000C94A4008C
S11300600C94A4000C94A4000C94A4000C94A4007C
S11300700C94A4000C94A4000C94A4000C94A4006C
S11300800C94A4000C94A4000C94A4000C94A4005C
S11300900C94A4000C94A4000C94A4000C94A4004C
S11300A00C94A4000C94A4000C94A4000C94A4003C
S11300B00C94A40008000000BE922449123EABAA8E
S11300C0AA2ABECDCCCC4C3E00000080BEABAAAA6E
S11300D0AA3E00000000BF000000803F00000000B6
S11300E000084178D3BB4387D1133D190E3CC3BDEF
S11300F04282AD2B3E68EC8276BED98FE1A93E4C9C
S113010080EFFFBE01C4FF7F3F0000000000112408
S11301101FBECFEFD8E0DEBFCDBF12E0A0E0B1E05C
S1130120EEEEFCE002C005900D92A236B107D9F7BD
S113013022E0A2E6B2E001C01D92AC38B207E1F7BA
S11301400E9460030C9475060C94000007E004B947
S113015000E005B901B910E007E61093C50000936B
S1130160C40008E10093C10006E00093C20007E860
S113017000937A0000E400937C0000E000937B008D
S11301800EEF00937E000FEF00937F0008950E940E
S113019004010FEF0AB900916B020BB904E005B931
S11301A00E94D90000E005B90E94D9000E94FE0017
S11301B008950AEF1FEF1A95F1F70A95D9F70895F4
S11301C00E9404010FEF0AB900916B020BB906E01B
S11301D005B90E94D90000E005B90E94D9000E9427
S11301E0FE0008950E94040100E00AB945B80BB16D
S11301F000936B0205B80E94FE00089502E00AB95C
S113020008E10093C100089500E00093C10008953F
S11302100091C00007FF08950091C600F9CF009136
S1130220C00007FFFCCF0091C60000936D02089543
S11302301091C00015FFFCCF00916D020093C60021
S1130240089507EC00937A0000917A0006FDFCCF34
S113025000917800009385020091790000936C026C
S11302600895F999FECF20E015E006E422BD11BD02
S113027000BDFA9AF99A0895F999FECF20E015E0A5
S113028000E022BD11BDF89A00B500936D020895F7
S1130290EF92FF920F931F93CF93DF93C82FCB015D
S11302A0BA01122FA7014F5F5F4F2AE00E9429066F
S11302B0F701C083CC23C9F090E001C0982F81E0FE
S11302C0890FC82FD0E0F701EC0FFD1F2081211109
S11302D0F5CF9550981768F4F701E80FF11D2081C8
S11302E0218381509813F8CF05C0C0E0D0E090E09E
S11302F001C0982FF701E90FF11D8EE281831123CC
S113030071F0BE016E5F7F4F6E0D7F1D4AE0802F3E
S113031090E00E941E06CE0DDF1D84E78983DF91E5
S1130320CF911F910F91FF90EF9008958F929F921C
S1130330AF92BF92EF92FF920F931F934B015C0118
S11303407A0180E090E040E050E0BA019501840138
S1130350082E04C035952795179507950A94D2F76A
S113036000FF04C0405659476E4F7F4F76956795FE
S11303705795479501968731910541F7405659475E
S11303806E4F7F4F950184010F2EF7E13595279528
S113039017950795FA95D1F7F02D0F57BB2014F058
S11303A0EBE201C0EDE20B3098F4A1E0B0E002C052
S11303B0AA0FBB1F0A95E2F79A01AB010E94FC0544
S11303C0AB01BC0100E020E08E2F0E94480104C074
S11303D022E08E2F0E9448011F910F91FF90EF9011
S11303E0BF90AF909F908F900895CF93DF93EC01CF
S11303F09881992341F0219690936D020E941801EF
S113040099919111F9CFDF91CF910895CF93DF9313
S1130410EC019881992341F0219690936B020E94FC
S1130420E00099919111F9CFDF91CF91089584E47F
S113043092E00E94F5018DE092E00E94F50188EDC2
S113044091E00E94F501089582EE91E00E94F50189
S11304500895CF9381E080936B020E94C70084E3E8
S113046080936B020E94C70088E080936B020E9415
S1130470C70082E080936B020E94C70086E08093ED
S11304806B020E94C7008DE080936B020E94C7003C
S113049080E091E00E94060280916202811112C004
S11304A0C8E12FEF89E698E1215080409040E1F7C0
S11304B000C00000C0936B020E94C70080916202DA
S11304C0882379F3CF9108958F929F92AF92BF9230
S11304D0CF92DF92EF92FF920E94210160916C0211
S11304E070E080E090E00E947C0420E030E040E88E
S11304F053E40E945A056B017C016091850270E00F
S113050080E090E00E947C049B01AC01C701B6012D
S11305100E9468030E94460470938B0260938A02CF
S1130520072E000C880B990B0E947E046B017C0142
S113053020E030E44CE156E40E945A054B015C0192
S1130540A701960160E070E080E894E40E946703EC
S11305509B01AC01C501B4010E94D40320E030E446
S11305604CE156E40E94D4030E94120523E333E1D4
S113057045E953E40E945A0520E030EE46E755E48D
S11305800E9468039B01AC0164EE72EC8FE899E46D
S11305900E94D40323E333E948E853E40E94670349
S11305A020E030E040E151E40E945A0520E030E0D0
S11305B040EA50E40E94D40320E030E040E052E4FA
S11305C00E9468034EE652E00E9496018EE692E095
S11305D00E94F501FF90EF90DF90CF90BF90AF9015
S11305E09F908F90089581E491E00E94F5010E940C
S11305F00F0180916D028737F9F48DE591E00E9437
S1130600F5018AE591E00E94F5010E940F018091B5
S11306106D02809305008AE791E00E94F5018AE566
S113062091E00E94F5010E940F0180916D02809378
S113063005000E94310108958237D1F48AE591E0E2
S11306400E94F50182E991E00E94F5018AE591E0BA
S11306500E94F5010E940F0180916D0280930500B4
S11306600E943C010E9418018AE591E00E94F50174
S1130670089582EE91E00E94F50110926D020E94AD
S11306800F0180916D028823D1F3853679F018F437
S1130690813649F00EC08C3619F0853781F009C0D7
S11306A00E94290208950E94640208950E94F302A0
S11306B0089589EB91E00E94F5010E9424020895B7
S11306C00E94A6000E9417020E943903FDCF5058D1
S11306D0BB27AA270E947F030C94D0040E94C20463
S11306E038F00E94C90420F039F49F3F19F426F42D
S11306F00C94BF040EF4E095E7FB0C94B904E92FC5
S11307000E94E10458F3BA17620773078407950738
S113071020F079F4A6F50C9403050EF4E0950B2E65
S1130720BA2FA02D0B01B90190010C01CA01A0013F
S11307301124FF27591B99F0593F50F4503E68F19A
S11307401A16F040A22F232F342F4427585FF3CFDB
S1130750469537952795A795F0405395C9F77EF4AC
S11307601F16BA0B620B730B840BBAF09150A1F0F5
S1130770FF0FBB1F661F771F881FC2F70EC0BA0F7B
S1130780621F731F841F48F4879577956795B79503
S1130790F7959E3F08F0B0CF9395880F08F09927FE
S11307A0EE0F9795879508950E94E8030C94D00462
S11307B00E94C90458F00E94C20440F029F45F3F2B
S11307C029F00C94B90451110C9404050C94BF0441
S11307D00E94E10468F39923B1F3552391F3951B27
S11307E0550BBB27AA2762177307840738F09F5F4E
S11307F05F4F220F331F441FAA1FA9F335D00E2EBB
S11308003AF0E0E832D091505040E695001CCAF727
S11308102BD0FE2F29D0660F771F881FBB1F2617EA
S113082037074807AB07B0E809F0BB0B802DBF01C1
S1130830FF2793585F4F3AF09E3F510578F00C9490
S1130840B9040C9404055F3FE4F3983ED4F3869511
S113085077956795B795F7959F5FC9F7880F911DB1
S11308609695879597F90895E1E0660F771F881F9D
S1130870BB1F621773078407BA0720F0621B730B50
S1130880840BBA0BEE1F88F7E09508950E944D047F
S11308906894B1110C94040508950E94E90488F049
S11308A09F5798F0B92F9927B751B0F0E1F0660F30
S11308B0771F881F991F1AF0BA95C9F714C0B13071
S11308C091F00E940305B1E008950C940305672F8D
S11308D0782F8827B85F39F0B93FCCF386957795A0
S11308E06795B395D9F73EF4909580957095619589
S11308F07F4F8F4F9F4F0895E89409C097FB3EF4B4
S113090090958095709561957F4F8F4F9F4F992358
S1130910A9F0F92F96E9BB279395F69587957795D6
S11309206795B795F111F8CFFAF4BB0F11F460FF96
S11309301BC06F5F7F4F8F4F9F4F16C0882311F0EE
S113094096E911C0772321F09EE8872F762F05C002
S1130950662371F096E8862F70E060E02AF09A959D
S1130960660F771F881FDAF7880F9695879597F992
S1130970089597F99F6780E870E060E008959FEF1D
S113098080EC089500240A94161617061806090622
S1130990089500240A9412161306140605060895F1
S11309A0092E0394000C11F4882352F0BB0F40F479
S11309B0BF2B11F460FF04C06F5F7F4F8F4F9F4FB9
S11309C0089557FD9058440F551F59F05F3F71F03B
S11309D04795880F97FB991F61F09F3F79F08795A2
S11309E00895121613061406551FF2CF4695F1DF2B
S11309F008C0161617061806991FF1CF86957105BB
S1130A00610508940895E894BB2766277727CB01EE
S1130A1097F9089516F00C94C7050C94BF046894D4
S1130A200C94B9040E94E904A8F39923C1F3AEF32A
S1130A30DF93CF931F930F93FF92C92FDD27882352
S1130A402AF02197660F771F881FDAF720E030E03D
S1130A5040E85FEB9FE3883920F0803E38F0219630
S1130A608F770E946803E4EBF0E004C00E946803FF
S1130A70E1EEF0E00E94D5058B01BE01EC01FB2EF6
S1130A806F5771097595771F880B990B0E947E0427
S1130A9028E132E741E35FE30E946D05AF2D980141
S1130AA0AE01FF900F911F91CF91DF910E947F03C0
S1130AB00C94D0040E946D050C94D0040E94C204CE
S1130AC038F00E94C90420F0952311F00C94B90465
S1130AD00C94BF0411240C9404050E94E10470F3E7
S1130AE0959FC1F3950F50E0551F629FF001729FCF
S1130AF0BB27F00DB11D639FAA27F00DB11DAA1FDE
S1130B00649F6627B00DA11D661F829F2227B00D2A
S1130B10A11D621F739FB00DA11D621F839FA00DB5
S1130B20611D221F749F3327A00D611D231F849F05
S1130B30600D211D822F762F6A2F11249F5750405C
S1130B409AF0F1F088234AF0EE0FFF1FBB1F661FD7
S1130B50771F881F91505040A9F79E3F510580F0A0
S1130B600C94B9040C9404055F3FE4F3983ED4F369
S1130B70869577956795B795F795E7959F5FC1F744
S1130B80FE2B880F911D9695879597F908959F3FA1
S1130B9031F0915020F4879577956795B795880F34
S1130BA0911D9695879597F90895DF93CF931F9399
S1130BB00F93FF92EF92DF927B018C01689406C041
S1130BC0DA2EEF010E946D05FE01E894A5912591AE
S1130BD0359145915591A6F3EF010E947F03FE01E3
S1130BE09701A801DA9469F7DF90EF90FF900F91D5
S1130BF01F91CF91DF910895B7FF0C9404060E94D2
S1130C000406821B930B08950E940F06A59F900D66
S1130C10B49F900DA49F800D911D11240895A29F4F
S1130C20B001B39FC001A39F700D811D1124911DBC
S1130C30B29F700D811D1124911D0895BB274A3068
S1130C4031F4992322F4BDE2909581959F4F0C9441
S1130C504C06BB27FA01A62F621771058105910581
S1130C60330B30FB66F0AA27660F771F881F991F86
S1130C70AA1FA21710F0A21B63953850A9F7A05D14
S1130C80AA3308F0A95DA19336F7B111B19310828C
S1130C90CA010C946506BB27FB015527AA27880FB8
S1130CA0991FAA1FA41710F0A41B83955051B9F7DC
S1130CB0A05DAA3308F0A95DA193009779F7B1115B
S1130CC0B1931192CB010C946506DC01FC01672FF2
S1130CD071917723E1F7329704C07C916D9370830F
S1110CE06291AE17BF07C8F30895F894FFCFD2
S1130CEE48656C6C6F2045434534313221202020F9
S1130CFE2048656C6C6F20454345343132212020E9
S1130D0E202048656C6C6F204543453431322120D8
S1130D1E20202048656C6C6F2045434534313221C8
S1130D2E0028772920746F2077726974652C202827
S1130D3E722920746F20726561640D0A00456E7409
S1130D4E6572206465736972656420454550524F1F
S1130D5E4D206164647265737300456E7465722010
S1130D6E6461746120746F2062652073746F7265A0
S1130D7E64005768617420616464726573732064DF
S1130D8E6F20796F752077616E7420746F20726591
S1130D9E61642066726F6D3F000D0A496E76616C58
S1130DAE696420436F6D6D616E64205472792041C5
S1130DBE6761696E2E2E2E000D0A52656164793AB2
S1130DCE20000D0A4D656E753A20284C2943442C9B
S1130DDE2028412944432C202845294550524F4D63
S1130DEE2C2028552955534152540D0A000D0A62E0
S1130DFE7920457567656E6520526F636B65792042
S1130E0E436F7079726967687420323032322C20E5
S1130E1E416C6C20526967687473205265736572F5
S1130E2E766564000D0A4543452D34313220415414
S1130E3E4D65676133323850422054696E79204FC4
S1050E4E53004B
S9030000FC
