:100000000C9478000C9495000C9495000C94950039
:100010000C9495000C9495000C9495000C9495000C
:100020000C9495000C9495000C9495000C949500FC
:100030000C9495000C9495000C9495000C949500EC
:100040000C9495000C9495000C9495000C949500DC
:100050000C9495000C9495000C9495000C949500CC
:100060000C9495000C9495000C9495000C949500BC
:100070000C9495000C9495000C9495000C949500AC
:100080000C9495000C9495000C9495000C9495009C
:100090000C9495000C9495000C9495000C9495008C
:1000A0000C9495000C9495000C9495000C9495007C
:1000B0000C949500036EDB363D9A9999993DABAA55
:1000C000AA2A3E000000803F072C7AA5BA6CC59092
:1000D000DA3B9365FC8BBC53F810FD3C5692834D84
:1000E000BD879D3AB63DCBC9BF5BBE73DA0FC93F32
:1000F00011241FBECFEFD8E0DEBFCDBF11E0A0E0DE
:10010000B1E0E8E9FDE002C005900D92AC36B10720
:10011000D9F721E0ACE6B1E001C01D92A83AB207E0
:10012000E1F70E942F030C94CA060C94000007E02C
:1001300004B900E005B901B910E007E61093C50065
:100140000093C40008E10093C10006E00093C200E0
:1001500007E800937A0000E000937B000EEF009325
:100160007E000FEF00937F00089502E00AB908E1D6
:100170000093C100089500E00093C100089500912C
:10018000C00007FF08950091C600F9CF0091C0009C
:1001900007FFFCCF0091C6000093800108951091E5
:1001A000C00015FFFCCF009180010093C6000895A8
:1001B00000E400937C0007EC00937A0000917A0041
:1001C00006FDFCCF00917800009397010091790023
:1001D00000937501089501E400937C0007EC0093FF
:1001E0007A0000917A0006FDFCCF00917800009320
:1001F000970100917900009375010895EF92FF92A5
:100200000F931F93CF93DF93C82FCB01BA01122F07
:10021000A7014F5F5F4F2AE00E947E06F701C0836F
:10022000CC23C9F090E001C0982F81E0890FC82F3E
:10023000D0E0F701EC0FFD1F20812111F5CF955083
:10024000981768F4F701E80FF11D20812183815090
:100250009813F8CF05C0C0E0D0E090E001C0982F1F
:10026000F701E90FF11D8EE28183112371F0BE01C8
:100270006E5F7F4F6E0D7F1D4AE0802F90E00E94E1
:100280007306CE0DDF1D84E78983DF91CF911F9127
:100290000F91FF90EF9008958F929F92AF92BF922F
:1002A000EF92FF920F931F934B015C017A0180E064
:1002B00090E040E050E0BA0195018401082E04C0AE
:1002C00035952795179507950A94D2F700FF04C036
:1002D000405659476E4F7F4F76956795579547958E
:1002E00001968731910541F7405659476E4F7F4F30
:1002F000950184010F2EF7E1359527951795079500
:10030000FA95D1F7F02D0F57BB2014F0EBE201C0A6
:10031000EDE20B3098F4A1E0B0E002C0AA0FBB1FE1
:100320000A95E2F79A01AB010E945106AB01BC01AC
:1003300000E020E08E2F0E94FE0004C022E08E2FFD
:100340000E94FE001F910F91FF90EF90BF90AF9021
:100350009F908F900895CF93DF93EC01988199231C
:1003600041F02196909380010E94CF0099919111C4
:10037000F9CFDF91CF9108958FE291E00E94AB0118
:1003800083E291E00E94AB0189E191E00E94AB0120
:1003900008954F925F926F927F928F929F92AF9249
:1003A000BF92CF92DF92EF92FF920F931F93CF9362
:1003B000DF9380E091E00E94AB010E94D800609141
:1003C000750170E080E090E00E947C0420E030E065
:1003D00040E853E40E9489056B017C01609197011C
:1003E00070E080E090E00E947C049B01AC01C701BA
:1003F000B6010E94480326EF3FE74EEF53E40E9408
:10040000470390580E9446047093990160939801A5
:10041000072E000C880B990B0E947E044EE951E0D8
:100420000E944C018EE991E00E94AB0183E091E0D3
:100430000E94AB010E94EB006091750170E080E0CA
:1004400090E00E947C0420E030E040E853E40E9409
:1004500089056B017C016091970170E080E090E07C
:100460000E947C049B01AC01C701B6010E944803B5
:100470002BED3FEB42E054E40E94470390580E946A
:1004800046047093950160939401072E000C880B2D
:10049000990B0E947E0446E751E00E944C0186E7DA
:1004A00091E00E94AB0188E091E00E94AB010091D5
:1004B000940110919501009F6001019FD00CD00C18
:1004C00011240D2C000CEE08FF08C701B6010E9494
:1004D0007E040E94FC056B017C01C0919801D091C3
:1004E0009901CC9F4001CD9F900C900C1124092CB8
:1004F000000CAA08BB08C501B4010E947E040E943A
:10050000FC054B015C01A7019601C701B6010E94E1
:1005100089052B013C01A5019401C501B4010E948C
:1005200089059B01AC01C301B2010E9448030E94EE
:10053000FC059B01AC01C701B6010E94D4036B010D
:100540007C010E94B40320EE3EE245E652E40E94A4
:100550008905862E972EB82EA92E20E030E0A9011D
:100560000E94CF0388237CF420E030E044EB53E486
:10057000682D792D8B2D9A2D0E944803262F372F19
:10058000E82FF92F04C0282D392DEB2DFA2DDD236E
:100590005CF5101611060CF047C0C701B6010E94A9
:1005A000360320EE3EE245E652E40E94890520E053
:1005B00030E044EB52E40E944803262F372FE82F07
:1005C000F92F32C01C161D06A4F020E030E044E3F1
:1005D00053E4682D792D8B2D9A2D0E944803262FE8
:1005E000372FE82FF92F13C01C161D0684F4112392
:1005F00074F420E030E047E853E4682D792D8B2D2A
:100600009A2D0E944803262F372FE82FF92F46E80E
:1006100051E0622F732F8E2F9F2F0E944C0186E88E
:1006200091E00E94AB0103C011238CF7CBCFDF9187
:10063000CF911F910F91FF90EF90DF90CF90BF90DF
:10064000AF909F908F907F906F905F904F900895A4
:1006500083E191E00E94AB010E94C90108950E94CC
:1006600097000E94BC010E942803FDCF9F939F77B3
:100670000E94B9040F90002042F49058A2EA2AED9B
:100680003FE049E450E40E945F030C944F0550584A
:10069000BB27AA270E945F030C944F050E944105C7
:1006A00038F00E94480520F039F49F3F19F426F4F1
:1006B0000C9403050EF4E095E7FB0C94FD04E92F80
:1006C0000E94600558F3BA176207730784079507FD
:1006D00020F079F4A6F50C9482050EF4E0950B2E2B
:1006E000BA2FA02D0B01B90190010C01CA01A00184
:1006F0001124FF27591B99F0593F50F4503E68F1DF
:100700001A16F040A22F232F342F4427585FF3CF1F
:10071000469537952795A795F0405395C9F77EF4F0
:100720001F16BA0B620B730B840BBAF09150A1F039
:10073000FF0FBB1F661F771F881FC2F70EC0BA0FBF
:10074000621F731F841F48F4879577956795B79547
:10075000F7959E3F08F0B0CF9395880F08F0992742
:10076000EE0F9795879508959F939F77EEE38937CE
:100770009E0728F4E4EBF0E00E942D050CC00E94D7
:10078000B9049058A2EA2AED3FE049EC5FE30E94E9
:100790005F030E944F050F9007FC905808950E9438
:1007A000D90408F481E008950E94E8030C944F05F1
:1007B0000E94480558F00E94410540F029F45F3F2F
:1007C00029F00C94FD0451110C9483050C9403053D
:1007D0000E94600568F39923B1F3552391F3951BAB
:1007E000550BBB27AA2762177307840738F09F5F52
:1007F0005F4F220F331F441FAA1FA9F335D00E2EBF
:100800003AF0E0E832D091505040E695001CCAF72B
:100810002BD0FE2F29D0660F771F881FBB1F2617EE
:1008200037074807AB07B0E809F0BB0B802DBF01C5
:10083000FF2793585F4F3AF09E3F510578F00C9494
:10084000FD040C9483055F3FE4F3983ED4F3869552
:1008500077956795B795F7959F5FC9F7880F911DB5
:100860009695879597F90895E1E0660F771F881FA1
:10087000BB1F621773078407BA0720F0621B730B54
:10088000840BBA0BEE1F88F7E09508950E944D0483
:100890006894B1110C94830508950E94680588F04E
:1008A0009F5798F0B92F9927B751B0F0E1F0660F34
:1008B000771F881F991F1AF0BA95C9F714C0B13075
:1008C00091F00E948205B1E008950C948205672F93
:1008D000782F8827B85F39F0B93FCCF386957795A4
:1008E0006795B395D9F73EF490958095709561958D
:1008F0007F4F8F4F9F4F0895E89409C097FB3EF4B8
:1009000090958095709561957F4F8F4F9F4F99235C
:10091000A9F0F92F96E9BB279395F69587957795DA
:100920006795B795F111F8CFFAF4BB0F11F460FF9A
:100930001BC06F5F7F4F8F4F9F4F16C0882311F0F2
:1009400096E911C0772321F09EE8872F762F05C006
:10095000662371F096E8862F70E060E02AF09A95A1
:10096000660F771F881FDAF7880F9695879597F996
:100970000895DF93CF931F930F938B01EC01E8EC65
:10098000F0E00E9406050E944F059801AE018B0120
:10099000EC0160E070E080E89FE30E9447030E9462
:1009A000FC059801AE010F911F91CF91DF910C943E
:1009B0009C05990F0008550FAA0BE0E8FEEF1616EC
:1009C0001706E807F907C0F012161306E407F50743
:1009D00098F0621B730B840B950B39F40A2661F0B7
:1009E000232B242B252B21F408950A2609F4A1405A
:1009F000A6958FEF811D811D089597F99F6780E867
:100A000070E060E008959FEF80EC0895DF93CF934E
:100A10001F930F93FF92EF92DF927B018C016894FA
:100A200006C0DA2EEF010E949C05FE01E894A59114
:100A30002591359145915591A6F3EF010E945F03F1
:100A4000FE019701A801DA9469F7DF90EF90FF901B
:100A50000F911F91CF91DF9108959F938F937F9373
:100A60006F93FF93EF939B01AC010E948905EF9177
:100A7000FF910E9406052F913F914F915F910C9439
:100A8000890500240A941616170618060906089503
:100A900000240A9412161306140605060895092E5A
:100AA0000394000C11F4882352F0BB0F40F4BF2BC9
:100AB00011F460FF04C06F5F7F4F8F4F9F4F089509
:100AC00057FD9058440F551F59F05F3F71F04795FF
:100AD000880F97FB991F61F09F3F79F087950895E4
:100AE000121613061406551FF2CF4695F1DF08C003
:100AF000161617061806991FF1CF86957105610520
:100B000008940895E894BB2766277727CB0197F9C7
:100B100008950E949C050C944F050E94410538F0F1
:100B20000E94480520F0952311F00C94FD040C94CC
:100B3000030511240C9483050E94600570F3959FB2
:100B4000C1F3950F50E0551F629FF001729FBB27C4
:100B5000F00DB11D639FAA27F00DB11DAA1F649F60
:100B60006627B00DA11D661F829F2227B00DA11D13
:100B7000621F739FB00DA11D621F839FA00D611D99
:100B8000221F749F3327A00D611D231F849F600DBA
:100B9000211D822F762F6A2F11249F5750409AF0E3
:100BA000F1F088234AF0EE0FFF1FBB1F661F771F6F
:100BB000881F91505040A9F79E3F510580F00C943A
:100BC000FD040C9483055F3FE4F3983ED4F38695CF
:100BD00077956795B795F795E7959F5FC1F7FE2BDA
:100BE000880F911D9695879597F9089519F416F435
:100BF0000C9403050C943C060E946805B8F39923F5
:100C0000C9F3B6F39F57550B87FF0E944A0600248D
:100C1000A0E640EA900180585695979528F4805CAC
:100C2000660F771F881F20F026173707480730F414
:100C3000621B730B840B202931294A2BA69517942C
:100C40000794202531254A2758F7660F771F881FFC
:100C500020F026173707480730F4620B730B840B1C
:100C6000200D311D411DA09581F7B901842F9158A8
:100C7000880F9695879508959F3F31F0915020F405
:100C8000879577956795B795880F911D9695879568
:100C900097F9089591505040660F771F881FD2F73B
:100CA0000895B7FF0C9459060E945906821B930BB6
:100CB00008950E946406A59F900DB49F900DA49F77
:100CC000800D911D11240895A29FB001B39FC00112
:100CD000A39F700D811D1124911DB29F700D811D68
:100CE0001124911D0895BB274A3031F4992322F431
:100CF000BDE2909581959F4F0C94A106BB27FA0108
:100D0000A62F6217710581059105330B30FB66F044
:100D1000AA27660F771F881F991FAA1FA21710F016
:100D2000A21B63953850A9F7A05DAA3308F0A95D0E
:100D3000A19336F7B111B1931082CA010C94BA068F
:100D4000BB27FB015527AA27880F991FAA1FA417A5
:100D500010F0A41B83955051B9F7A05DAA3308F099
:100D6000A95DA193009779F7B111B1931192CB01CD
:100D70000C94BA06DC01FC01672F71917723E1F72F
:100D8000329704C07C916D9370836291AE17BF0758
:080D9000C8F30895F894FFCFA9
:100D9800583A002C20593A002C2044656772656542
:100DA800733A000D20202020000D0A5265616479F5
:100DB8003A20000D0A4A6F79737469636B21000D3C
:100DC8000A4543452D3431322041544D656761331E
:100DD800323850422046696E616C20287573696EFE
:100DE800672054696E794F5320627920457567658D
:0C0DF8006E6520526F636B657929000066
:00000001FF
