S0160000435F50726F6A6563745F6C6162322E73726563D5
S11300000C945A000C9477000C9477000C947700AD
S11300100C9477000C9477000C9477000C94770080
S11300200C9477000C9477000C9477000C94770070
S11300300C9477000C9477000C9477000C94770060
S11300400C9477000C9477000C9477000C94770050
S11300500C9477000C9477000C9477000C94770040
S11300600C9477000C9477000C9477000C94770030
S11300700C9477000C9477000C9477000C94770020
S11300800C9477000C9477000C9477000C94770010
S11300900C9477000C9477000C9477000C94770000
S11300A00C9477000C9477000C9477000C947700F0
S11300B00C94770011241FBECFEFD8E0DEBFCDBF74
S11300C011E0A0E0B1E0E0E2F1E002C005900D92A1
S11300D0A230B107D9F721E0A2E0B1E001C01D923E
S11300E0A330B207E1F70E9479000C948E000C94BF
S11300F0000080910001609101010E9482008093C0
S113010002010895991B79E004C0991F961708F01D
S1130110961B881F7A95C9F780950895F894FFCFA8
S10501200201D6
S9030000FC
